:100000000C9434000C943E000C943E000C943E0082
:100010000C943E000C943E000C943E000C943E0068
:100020000C943E000C943E000C943E000C943E0058
:100030000C943E000C943E000C943E000C943E0048
:100040000C943E000C943E000C943E000C943E0038
:100050000C943E000C943E000C943E000C943E0028
:100060000C943E000C943E0011241FBECFEFD4E050
:10007000DEBFCDBF0E9440000C9453030C940000DF
:10008000CF93DF93CDB7DEB7AA970FB6F894DEBF54
:100090000FBECDBF0E94AC0181E00E94190280E03A
:1000A00090E0AAEFB3E489839A83AB83BC8320E01A
:1000B00030E04AE755E469817A818B819C810E9416
:1000C000BE02DC01CB018D839E83AF83B88720E025
:1000D00030E040E85FE36D817E818F8198850E94EA
:1000E000380288232CF481E090E09A8789873FC00A
:1000F00020E03FEF4FE757E46D817E818F81988547
:100100000E94B90218164CF520E030E040E251E4BC
:1001100069817A818B819C810E94BE02DC01CB01C6
:10012000BC01CD010E943D02DC01CB019A87898789
:100130000FC080E991E09C878B878B859C85019718
:10014000F1F79C878B8789859A8501979A8789879C
:1001500089859A85892B69F714C06D817E818F818D
:1001600098850E943D02DC01CB019A8789878985A9
:100170009A859E878D878D859E850197F1F79E874D
:100180008D8782E00E94190280E090E0AAEFB3E43C
:100190008F87988BA98BBA8B20E030E04AE755E433
:1001A0006F85788989899A890E94BE02DC01CB011A
:1001B0008B8B9C8BAD8BBE8B20E030E040E85FE307
:1001C0006B897C898D899E890E94380288232CF452
:1001D00081E090E0988F8F8B3FC020E03FEF4FE7AA
:1001E00057E46B897C898D899E890E94B902181613
:1001F0004CF520E030E040E251E46F857889898950
:100200009A890E94BE02DC01CB01BC01CD010E9493
:100210003D02DC01CB01988F8F8B0FC080E991E00C
:100220009A8F898F898D9A8D0197F1F79A8F898F8F
:100230008F89988D0197988F8F8B8F89988D892BB7
:1002400069F714C06B897C898D899E890E943D0263
:10025000DC01CB01988F8F8B8F89988D9C8F8B8F32
:100260008B8D9C8D0197F1F79C8F8B8F84E00E9482
:10027000190280E090E0AAEFB3E48D8F9E8FAF8FDC
:10028000B8A320E030E04AE755E46D8D7E8D8F8D78
:1002900098A10E94BE02DC01CB0189A39AA3ABA363
:1002A000BCA320E030E040E85FE369A17AA18BA124
:1002B0009CA10E94380288232CF481E090E09EA348
:1002C0008DA33FC020E03FEF4FE757E469A17AA13B
:1002D0008BA19CA10E94B90218164CF520E030E0D9
:1002E00040E251E46D8D7E8D8F8D98A10E94BE02FB
:1002F000DC01CB01BC01CD010E943D02DC01CB0140
:100300009EA38DA30FC080E991E098A78FA38FA132
:1003100098A50197F1F798A78FA38DA19EA10197AA
:100320009EA38DA38DA19EA1892B69F714C069A1FD
:100330007AA18BA19CA10E943D02DC01CB019EA36E
:100340008DA38DA19EA19AA789A789A59AA501979A
:10035000F1F79AA789A7A0CECF93DF93CDB7DEB7E9
:1003600087E290E027E230E0F90120812760FC017C
:10037000208388E290E028E230E0F9012081287FA4
:10038000FC01208387E290E027E230E0F901208140
:10039000277FFC01208388E290E028E230E0F90129
:1003A00020812860FC01208387E290E027E230E092
:1003B000F90120812F7EFC012083DF91CF910895E8
:1003C000CF93DF9300D0CDB7DEB789836A838A816C
:1003D0008823A9F088E290E028E230E0F90120814A
:1003E000622F2981422F50E021E030E002C0220F2D
:1003F000331F4A95E2F7262BFC01208315C088E2C3
:1004000090E028E230E0F9012081622F2981422F1B
:1004100050E021E030E002C0220F331F4A95E2F79E
:1004200020952623FC0120830F900F90DF91CF9120
:100430000895CF93DF931F92CDB7DEB7898388E20B
:1004400090E028E230E0F9012081287FFC01208340
:1004500088E290E028E230E0F9012081322F298102
:100460002770232BFC0120830F90DF91CF910895FB
:100470000E946C0208F481E008950E94980288F0BE
:100480009F5798F0B92F9927B751B0F0E1F0660F58
:10049000771F881F991F1AF0BA95C9F714C0B13099
:1004A00091F00E94B202B1E008950C94B202672F5D
:1004B000782F8827B85F39F0B93FCCF386957795C8
:1004C0006795B395D9F73EF49095809570956195B1
:1004D0007F4F8F4F9F4F0895990F0008550FAA0B1C
:1004E000E0E8FEEF16161706E807F907C0F0121647
:1004F0001306E407F50798F0621B730B840B950B4A
:1005000039F40A2661F0232B242B252B21F408959E
:100510000A2609F4A140A6958FEF811D811D08953B
:1005200057FD9058440F551F59F05F3F71F04795A4
:10053000880F97FB991F61F09F3F79F08795089589
:10054000121613061406551FF2CF4695F1DF08C0A8
:10055000161617061806991FF1CF869571056105C5
:1005600008940895E894BB2766277727CB0197F96D
:1005700008950E946C0208F48FEF08950E94D10242
:100580000C9442030E94340338F00E943B0320F095
:10059000952311F00C942B030C94310311240C942B
:1005A000B3020E94900270F3959FC1F3950F50E043
:1005B000551F629FF001729FBB27F00DB11D639F15
:1005C000AA27F00DB11DAA1F649F6627B00DA11DBB
:1005D000661F829F2227B00DA11D621F739FB00D61
:1005E000A11D621F839FA00D611D221F749F3327D1
:1005F000A00D611D231F849F600D211D822F762F6A
:100600006A2F11249F5750409AF0F1F088234AF046
:10061000EE0FFF1FBB1F661F771F881F91505040B2
:10062000A9F79E3F510580F00C942B030C94B30264
:100630005F3FE4F3983ED4F3869577956795B79539
:10064000F795E7959F5FC1F7FE2B880F911D969553
:10065000879597F9089597F99F6780E870E060E0C3
:1006600008959FEF80EC089500240A94161617064B
:1006700018060906089500240A9412161306140693
:1006800005060895092E0394000C11F4882352F0F6
:10069000BB0F40F4BF2B11F460FF04C06F5F7F4FAE
:0A06A0008F4F9F4F0895F894FFCF8D
:00000001FF
