:100000000C9434000C943E000C943E000C943E0082
:100010000C943E000C943E000C943E000C943E0068
:100020000C943E000C943E000C943E000C943E0058
:100030000C943E000C943E000C943E000C943E0048
:100040000C943E000C943E000C943E000C943E0038
:100050000C943E000C943E000C943E000C943E0028
:100060000C943E000C943E0011241FBECFEFD4E050
:10007000DEBFCDBF0E9440000C9476020C940000BD
:10008000CF93DF93CDB7DEB760970FB6F894DEBF9E
:100090000FBECDBF0E94CF001A8219827AC089811B
:1000A0000E943C0180E090E0AAE7B4E48B839C834B
:1000B000AD83BE8320E030E04AE755E46B817C816C
:1000C0008D819E810E94E101DC01CB018F839887A5
:1000D000A987BA8720E030E040E85FE36F81788548
:1000E00089859A850E945B0188232CF481E090E049
:1000F0009C878B873FC020E03FEF4FE757E46F813D
:10010000788589859A850E94DC0118164CF520E0D7
:1001100030E040E251E46B817C818D819E810E94C0
:10012000E101DC01CB01BC01CD010E946001DC01D9
:10013000CB019C878B870FC080E991E09E878D87DC
:100140008D859E850197F1F79E878D878B859C8590
:1001500001979C878B878B859C85892B69F714C0B9
:100160006F81788589859A850E946001DC01CB01C9
:100170009C878B878B859C85988B8F878F859889AB
:100180000197F1F7988B8F8789819A8101969A83DD
:10019000898389819A8108970CF481CF7DCFCF9391
:1001A000DF93CDB7DEB787E290E027E230E0F901D8
:1001B00020812760FC01208388E290E028E230E083
:1001C000F9012081287FFC01208387E290E027E26B
:1001D00030E0F9012081277FFC01208388E290E054
:1001E00028E230E0F90120812860FC01208387E2C9
:1001F00090E027E230E0F90120812F7EFC0120838E
:10020000DF91CF910895CF93DF9300D0CDB7DEB7C4
:1002100089836A838A818823A9F088E290E028E2B2
:1002200030E0F9012081622F2981422F50E021E046
:1002300030E002C0220F331F4A95E2F7262BFC0163
:10024000208315C088E290E028E230E0F9012081A7
:10025000622F2981422F50E021E030E002C0220FBE
:10026000331F4A95E2F720952623FC0120830F9047
:100270000F90DF91CF910895CF93DF931F92CDB769
:10028000DEB7898388E290E028E230E0F90120813E
:10029000287FFC01208388E290E028E230E0F90129
:1002A0002081322F29812770232BFC0120830F907E
:1002B000DF91CF9108950E948F0108F481E00895A5
:1002C0000E94BB0188F09F5798F0B92F9927B7512A
:1002D000B0F0E1F0660F771F881F991F1AF0BA95EA
:1002E000C9F714C0B13091F00E94D501B1E0089572
:1002F0000C94D501672F782F8827B85F39F0B93F64
:10030000CCF3869577956795B395D9F73EF490959C
:100310008095709561957F4F8F4F9F4F0895990FEE
:100320000008550FAA0BE0E8FEEF16161706E807BF
:10033000F907C0F012161306E407F50798F0621BE0
:10034000730B840B950B39F40A2661F0232B242BB5
:10035000252B21F408950A2609F4A140A6958FEFD4
:10036000811D811D089557FD9058440F551F59F068
:100370005F3F71F04795880F97FB991F61F09F3F92
:1003800079F087950895121613061406551FF2CFBB
:100390004695F1DF08C0161617061806991FF1CF0B
:1003A00086957105610508940895E894BB27662732
:1003B0007727CB0197F908950E948F0108F48FEFFA
:1003C00008950E94F4010C9465020E94570238F0CF
:1003D0000E945E0220F0952311F00C944E020C94C2
:1003E000540211240C94D6010E94B30170F3959F1E
:1003F000C1F3950F50E0551F629FF001729FBB271C
:10040000F00DB11D639FAA27F00DB11DAA1F649FB7
:100410006627B00DA11D661F829F2227B00DA11D6A
:10042000621F739FB00DA11D621F839FA00D611DF0
:10043000221F749F3327A00D611D231F849F600D11
:10044000211D822F762F6A2F11249F5750409AF03A
:10045000F1F088234AF0EE0FFF1FBB1F661F771FC6
:10046000881F91505040A9F79E3F510580F00C9491
:100470004E020C94D6015F3FE4F3983ED4F3869588
:1004800077956795B795F795E7959F5FC1F7FE2B31
:10049000880F911D9695879597F9089597F99F670D
:1004A00080E870E060E008959FEF80EC08950024FC
:1004B0000A941616170618060906089500240A94C9
:1004C00012161306140605060895092E0394000C4F
:1004D00011F4882352F0BB0F40F4BF2B11F460FFDE
:1004E00004C06F5F7F4F8F4F9F4F0895F894FFCFE9
:00000001FF
