:100000000C9434000C943E000C943E000C943E0082
:100010000C943E000C943E000C943E000C943E0068
:100020000C943E000C943E000C943E000C943E0058
:100030000C943E000C943E000C943E000C943E0048
:100040000C943E000C943E000C943E000C943E0038
:100050000C943E000C943E000C943E000C943E0028
:100060000C943E000C943E0011241FBECFEFD4E050
:10007000DEBFCDBF0E9440000C944B010C940000E9
:10008000CF93DF93CDB7DEB72A970FB6F894DEBFD4
:100090000FBECDBF0E947A0084E00E9406019E83BD
:1000A0008D838D819E8124E531E0B9010E94370165
:1000B000CB0198878F8381E090E09A8389831C82AB
:1000C0001B821C821B820BC089819A81880F991F19
:1000D0009A8389838B819C8101969C838B832B815E
:1000E0003C818F8198852817390770F389810E9498
:1000F000E700D2CFCF93DF93CDB7DEB787E290E0B2
:1001000027E230E0F90120812760FC01208388E2AA
:1001100090E028E230E0F9012081287FFC01208373
:1001200087E290E027E230E0F9012081277FFC019F
:10013000208388E290E028E230E0F9012081286005
:10014000FC01208387E290E027E230E0F901208182
:100150002F7EFC012083DF91CF910895CF93DF9311
:1001600000D0CDB7DEB789836A838A818823A9F05E
:1001700088E290E028E230E0F9012081622F2981B5
:10018000422F50E021E030E002C0220F331F4A9599
:10019000E2F7262BFC01208315C088E290E028E2DC
:1001A00030E0F9012081622F2981422F50E021E0C7
:1001B00030E002C0220F331F4A95E2F72095262334
:1001C000FC0120830F900F90DF91CF910895CF9382
:1001D000DF931F92CDB7DEB7898388E290E028E2F3
:1001E00030E0F9012081287FFC01208388E290E043
:1001F00028E230E0F9012081322F29812770232B5A
:10020000FC0120830F90DF91CF910895CF93DF936E
:100210001F92CDB7DEB789838CE790E029812F70DC
:100220002064FC0120838AE790E027ECFC01208316
:1002300000008AE790E0FC018081882F90E08074C4
:100240009927892BB1F788E790E0FC018081282F5E
:1002500030E089E790E0FC018081882F90E0982FC2
:100260008827820F931F0F90DF91CF910895AA1BCB
:10027000BB1B51E107C0AA1FBB1FA617B70710F091
:10028000A61BB70B881F991F5A95A9F780959095C3
:0A029000BC01CD010895F894FFCFE2
:00000001FF
