:100000000C9434000C943E000C943E000C943E0082
:100010000C943E000C943E000C943E000C943E0068
:100020000C943E000C943E000C943E000C943E0058
:100030000C943E000C943E000C943E000C943E0048
:100040000C943E000C943E000C943E000C943E0038
:100050000C943E000C943E000C943E000C943E0028
:100060000C943E000C943E0011241FBECFEFD4E050
:10007000DEBFCDBF0E9440000C94B6020C9400007D
:10008000CF93DF93CDB7DEB760970FB6F894DEBF9E
:100090000FBECDBF1A8219820E94DE0086E290E078
:1000A000FC018081882F90E088709927892B29F4A2
:1000B00089819A8101969A83898303C089810E94EC
:1000C0004B0186E290E0FC018081882F90E08870EF
:1000D0009927892B99F380E090E0A0E2B1E48B832B
:1000E0009C83AD83BE8320E030E04AE755E46B811A
:1000F0007C818D819E810E942102DC01CB018F8356
:100100009887A987BA8720E030E040E85FE36F81F5
:10011000788589859A850E949B0188232CF481E04B
:1001200090E09C878B873FC020E03FEF4FE757E48C
:100130006F81788589859A850E941C0218164CF576
:1001400020E030E040E251E46B817C818D819E8132
:100150000E942102DC01CB01BC01CD010E94A00163
:10016000DC01CB019C878B870FC080E991E09E87E3
:100170008D878D859E850197F1F79E878D878B856D
:100180009C8501979C878B878B859C85892B69F73C
:1001900014C06F81788589859A850E94A001DC0151
:1001A000CB019C878B878B859C85988B8F878F85D0
:1001B00098890197F1F7988B8F8770CFCF93DF9352
:1001C000CDB7DEB787E290E027E230E0F901208189
:1001D0002760FC01208388E290E028E230E0F9010A
:1001E0002081287FFC01208387E290E027E230E035
:1001F000F9012081277FFC01208388E290E028E23A
:1002000030E0F90120812860FC01208387E290E042
:1002100027E230E0F90120812F7EFC012083DF916D
:10022000CF910895CF93DF9300D0CDB7DEB7898308
:100230006A838A818823A9F088E290E028E230E08E
:10024000F9012081622F2981422F50E021E030E026
:1002500002C0220F331F4A95E2F7262BFC012083B0
:1002600015C088E290E028E230E0F9012081622F99
:100270002981422F50E021E030E002C0220F331FDD
:100280004A95E2F720952623FC0120830F900F90DA
:10029000DF91CF910895CF93DF931F92CDB7DEB753
:1002A000898388E290E028E230E0F9012081287F0C
:1002B000FC01208388E290E028E230E0F90120810F
:1002C000322F29812770232BFC0120830F90DF918F
:1002D000CF910895CF93DF931F92CDB7DEB7898377
:1002E0008CE790E029812F702064FC0120838AE74D
:1002F00090E027ECFC01208300008AE790E0FC01FD
:100300008081882F90E080749927892BB1F788E746
:1003100090E0FC018081282F30E089E790E0FC012B
:100320008081882F90E0982F8827820F931F0F904D
:10033000DF91CF9108950E94CF0108F481E00895E4
:100340000E94FB0188F09F5798F0B92F9927B75169
:10035000B0F0E1F0660F771F881F991F1AF0BA9569
:10036000C9F714C0B13091F00E941502B1E00895B0
:100370000C941502672F782F8827B85F39F0B93FA2
:10038000CCF3869577956795B395D9F73EF490951C
:100390008095709561957F4F8F4F9F4F0895990F6E
:1003A0000008550FAA0BE0E8FEEF16161706E8073F
:1003B000F907C0F012161306E407F50798F0621B60
:1003C000730B840B950B39F40A2661F0232B242B35
:1003D000252B21F408950A2609F4A140A6958FEF54
:1003E000811D811D089557FD9058440F551F59F0E8
:1003F0005F3F71F04795880F97FB991F61F09F3F12
:1004000079F087950895121613061406551FF2CF3A
:100410004695F1DF08C0161617061806991FF1CF8A
:1004200086957105610508940895E894BB276627B1
:100430007727CB0197F908950E94CF0108F48FEF39
:1004400008950E9434020C94A5020E94970238F08D
:100450000E949E0220F0952311F00C948E020C94C1
:10046000940211240C9416020E94F30170F3959FDC
:10047000C1F3950F50E0551F629FF001729FBB279B
:10048000F00DB11D639FAA27F00DB11DAA1F649F37
:100490006627B00DA11D661F829F2227B00DA11DEA
:1004A000621F739FB00DA11D621F839FA00D611D70
:1004B000221F749F3327A00D611D231F849F600D91
:1004C000211D822F762F6A2F11249F5750409AF0BA
:1004D000F1F088234AF0EE0FFF1FBB1F661F771F46
:1004E000881F91505040A9F79E3F510580F00C9411
:1004F0008E020C9416025F3FE4F3983ED4F3869587
:1005000077956795B795F795E7959F5FC1F7FE2BB0
:10051000880F911D9695879597F9089597F99F678C
:1005200080E870E060E008959FEF80EC089500247B
:100530000A941616170618060906089500240A9448
:1005400012161306140605060895092E0394000CCE
:1005500011F4882352F0BB0F40F4BF2B11F460FF5D
:1005600004C06F5F7F4F8F4F9F4F0895F894FFCF68
:00000001FF
